:020000040800F2
:100000000050002091120008150200081702000895
:10001000190200081B0200081D0200080000000071
:100020000000000000000000000000001F020008A7
:100030002102000800000000230200082502000839
:10004000D9120008D9120008D9120008D9120008E4
:10005000D9120008D9120008D9120008D9120008D4
:10006000D9120008D9120008D9120008D9120008C4
:10007000D9120008D9120008D9120008D9120008B4
:10008000D9120008D9120008D9120008D9120008A4
:10009000D9120008D9120008D9120008D912000894
:1000A000D9120008D9120008D9120008D912000884
:1000B000D9120008D9120008D9120008D912000874
:1000C000D9120008D9120008D9120008D912000864
:1000D000D9120008D9120008D9120008D912000854
:1000E000D9120008D9120008D91200080000000037
:1000F0000000000000000000000000000000000000
:0C01000000000000000000005FF808F1A3
:10010C0010B5054C237833B9044B13B10448AFF345
:10011C0000800123237010BD0400002000000000AB
:10012C00DC1200080C4B43B10C4810B50C49AFF372
:10013C0000800C48036823B910BD0A48036833B922
:10014C007047094B002BF7D0BDE810401847064B01
:10015C00002BF5D0184700BF00000000DC1200088F
:10016C0008000020040000200000000070B50F4EB5
:10017C000F4D761BB61018BF002405D0013455F86E
:10018C00043B9847A642F9D10A4E0B4D01F0A0F85A
:10019C00761BB61018BF002406D0013455F8043B6A
:1001AC009847A642F9D170BD70BD00BF7C13000802
:1001BC007C130008801300087C1300080F4B1A688E
:1001CC0042F001021A6059680D4A0A405A601A68D6
:1001DC0022F0847222F480321A601A6822F480228F
:1001EC001A605A6822F4FE025A604FF41F029A6099
:1001FC004FF00062034B9A60704700BF0010024042
:10020C000000FFF800ED00E07047FEE7FEE7FEE7B8
:10021C00FEE770477047704708B500F005FD00F029
:10022C0078F808BD074AD36823F4E0631B041B0C61
:10023C00000200F4E060184340F0BF6040F400306E
:10024C00D060704700ED00E030B4164BDB68C3F3B0
:10025C000223C3F10704042C28BF04241D1D062D02
:10026C0017D9033B012505FA04F4013C21409940C0
:10027C0005FA03F3013B1340194300280BDB09017A
:10028C00C9B200F1604000F5614080F8001330BC49
:10029C0070470023E6E700F00F000901C9B2024BDA
:1002AC001954F4E700ED00E014ED00E0420900F011
:1002BC001F00012303FA00F0014B43F822007047A2
:1002CC0000E100E00138B0F1807F0AD2064B5860A3
:1002DC00F021064A82F823100020986007221A6049
:1002EC0070470120704700BF10E000E000ED00E017
:1002FC00042805D0054A136823F0040313607047E3
:10030C00024A136843F004031360704710E000E0E6
:10031C00704708B5FFF7FCFF08BD000010B586B0AC
:10032C00134B9A6942F010029A619A6902F010021A
:10033C000092009A9A6942F004029A619B6903F058
:10034C0004030193019B0B4C00224FF400512046F7
:10035C0000F0E0F94FF400530293012303930223BE
:10036C00059302A9204600F0DFF806B010BD00BFCF
:10037C000010024000100140F0B5E5B00C4E0D4CE1
:10038C0006F1200735460FCD20606160A260E36066
:10039C002E461034BD42F5D12B8823804FF47A734E
:1003AC0023226946044800F0F8FA65B0F0BD00BF9E
:1003BC002C130008640000202400002008B50B4812
:1003CC000B4B03604FF4E133436000238360C36045
:1003DC0003610C2242618361C36100F0AFFA00B982
:1003EC0008BD98210348FFF7C7FFF9E72400002058
:1003FC00003801402013000800B591B00223069389
:10040C0001230A9310230B9300230D9306A800F0ED
:10041C002FFCF0B90F230193002102910391049159
:10042C00059101A800F04CFEC0B900F005FF0E4B81
:10043C00A3FB00308009FFF745FF0420FFF758FFAE
:10044C00002211464FF0FF30FFF7FEFE11B05DF8B1
:10045C0004FB6E210548FFF78FFFDBE77C21034887
:10046C00FFF78AFFE1E700BFD34D621020130008AD
:10047C0008B54FF40051024800F052F908BD00BF16
:10048C000010014008B500F0BDFBFFF7B5FFFFF70A
:10049C0045FFFFF793FF1D4C204600F067FB0A2237
:1004AC001B49204600F0EAFA18B120211948FFF741
:1004BC0063FFFFF7DDFF184D184C0FCC2860696007
:1004CC00AA60EB6007CC28616961AA6123782B775D
:1004DC004FF47A735A2229460C4800F05EFA104BFE
:1004EC001B78DBB2012BFAD100220D4B1A700A4C8F
:1004FC000C4B03CB206061601B8823814FF47A7313
:10050C005A222146014800F048FAE8E7240000206E
:10051C00C8000020201300086400002050130008BD
:10052C002000002070130008F0B583B0002634467C
:10053C0071E0002D00F0A180012D00D1CE68FF2BC1
:10054C0000F2AF808646FF2B00F2AE80A500DEF8ED
:10055C0000200F27AF4022EA070206FA05F52A43CE
:10056C00CEF800204A6812F0805F53D0634A956938
:10057C0045F001059561926902F001020192019A20
:10058C00A508AF1C5E4A52F8272004F00307BF00F1
:10059C004FF00F0E0EFA07FE22EA0E02DFF870E1A2
:1005AC00704500F088800EF5806E704500F08680F6
:1005BC000EF5806E704500F084800EF5806E7045EF
:1005CC0076D04FF0040E0EFA07F73A4302354C4F33
:1005DC0047F825204A6812F4803F75D0494D2A68A7
:1005EC001A432A604A6812F4003F73D0454D6A687A
:1005FC001A436A604A6812F4801F71D0414DAA6890
:10060C001A43AA604A6812F4001F6FD03D4DEA6885
:10061C001343EB6001340F2C6ED80122A2400B68FF
:10062C0013409A42F6D14D68122D30D00BD8022DC2
:10063C002AD07FF67EAF032D2FD0112D7FF47FAF04
:10064C00CE6804367BE7304FBD4216D00CD92F4F05
:10065C00BD4212D007F58037BD420ED0A7F58017EA
:10066C00BD427FF46CAF08E0A7F58017BD4204D003
:10067C0007F58037BD427FF462AF8D687DB1012DE7
:10068C0008D0426108265AE7CE68083657E7CE688C
:10069C000C3654E70261082651E700264FE7042682
:1006AC004DE700F1040E4EE7A4F10805AD004EE74E
:1006BC004FF0030E87E74FF0000E84E74FF0010E6A
:1006CC0081E74FF0020E7EE70E4D2A6822EA030204
:1006DC002A6087E70B4D6A6822EA03026A6089E7A1
:1006EC00084DAA6822EA0302AA608BE7054DEA6866
:1006FC0022EA0303EB608DE703B0F0BD001002406B
:10070C0000000140000401400000211000003110E5
:10071C000008014012B9090401617047016170477A
:10072C00C3685940C16070472DE9F047054602681F
:10073C00136923F44053C1680B4313618368026946
:10074C001343426913430168CA6822F4B05222F081
:10075C000C021343CB600268536923F44073816924
:10076C000B435361D0F80080594B984557D000F09B
:10077C0069FD00EB800000EB80006C68A400B0FB0E
:10078C00F4F4544FA7FB04346409260100F05AFD1D
:10079C0000EB800000EB80006C68A400B0FBF4FA66
:1007AC0000F050FD00EB800000EB80006C68A400B2
:1007BC00B0FBF4F4A7FB043464094FF0640909FBA3
:1007CC0014A424013234A7FB0434640904F0F004AB
:1007DC00344400F037FD00EB800000EB80006E68C5
:1007EC00B600B0FBF6F600F02DFD00EB800000EB40
:1007FC0080006B689B00B0FBF3F0A7FB0030400956
:10080C0009FB10694FEA091909F13209A7FB0937ED
:10081C00C7F343172744C8F80870BDE8F08700F009
:10082C0021FD00EB800000EB80006C68A400B0FBA5
:10083C00F4F4284FA7FB04346409260100F012FDE0
:10084C0000EB800000EB80006C68A400B0FBF4FAB5
:10085C0000F008FD00EB800000EB80006C68A40049
:10086C00B0FBF4F4A7FB043464094FF0640909FBF2
:10087C0014A424013234A7FB0434640904F0F004FA
:10088C00344400F0EFFC00EB800000EB80006E685D
:10089C00B600B0FBF6F600F0E5FC00EB800000EBD8
:1008AC0080006B689B00B0FBF3F3A7FB03235B0991
:1008BC0009FB13694FEA091909F13209A7FB09373A
:1008CC00C7F343172744C8F80870BDE8F08700BF8A
:1008DC00003801401F85EB512DE9F04105460F46CC
:1008EC0016469846069C2B681B6837EA03030CBF18
:1008FC0001230023B3421ED1B4F1FF3FF3D02CB13E
:10090C0000F09AF9A0EB08008442ECD22A68D36874
:10091C0023F4D073D3602A68536923F00103536125
:10092C00202385F8393085F83A30002385F83830A3
:10093C000320BDE8F0810020BDE8F08158B310B56C
:10094C00044690F839300BB3242384F839302268EC
:10095C00D36823F40053D3602046FFF7E5FE2268EA
:10096C00136923F4904313612268536923F02A031B
:10097C0053612268D36843F40053D3600020E063D2
:10098C00202384F8393084F83A3010BD80F83830A0
:10099C0000F0ECF8D8E7012070472DE9F04182B067
:1009AC001E4690F83930DBB2202B04D002231846B7
:1009BC0002B0BDE8F08104460D469046002955D0A2
:1009CC00002A55D090F83830012B01D10223EEE7E4
:1009DC00012380F838300023C363212380F8393099
:1009EC0000F02AF90746A4F82480A4F8268010E029
:1009FC0000963B46002280212046FFF76DFF002821
:100A0C0038D122682B88C3F3080353602369CBB910
:100A1C000235E38C9BB2BBB1E38C9BB2013B9BB226
:100A2C00E384A368B3F5805FE2D000963B460022D6
:100A3C0080212046FFF750FFF0B923682A785A60CE
:100A4C000135E6E70135E4E700963B4600224021FC
:100A5C002046FFF741FF034608B10323A7E72022F6
:100A6C0084F83920002284F83820A0E701239EE77F
:100A7C0001239CE703239AE7032398E790F83A3085
:100A8C00DBB2202B01D002207047F9B102B390F8F1
:100A9C003830012B1ED081628285C2850023C3634E
:100AAC00222280F83A2080F838300168CA6842F473
:100ABC008072CA6001684A6942F001024A610168A9
:100ACC00CA6842F02002CA6018467047012070477D
:100ADC00012070470220704700B583B0214B9A6902
:100AEC0042F001029A619B6903F001030193019B9F
:100AFC000320FFF797FB002211466FF00B00FFF766
:100B0C00A3FB002211466FF00A00FFF79DFB0022A9
:100B1C0011466FF00900FFF797FB002211466FF0AA
:100B2C000400FFF791FB002211466FF00300FFF762
:100B3C008BFB002211466FF00100FFF785FB0022B2
:100B4C0011464FF0FF30FFF77FFB074B5A6822F03E
:100B5C00E0625A605A6842F000725A6003B05DF865
:100B6C0004FB00BF00100240000001400268184B5B
:100B7C009A4200D0704730B587B003F558439A6954
:100B8C0042F480429A619B6903F480430193019B78
:100B9C004FF40073029302230393032305930D4D2B
:100BAC0002A92846FFF7C0FC4FF48063029300248F
:100BBC000394049402A92846FFF7B6FC224621466A
:100BCC002520FFF741FB2520FFF770FB07B030BD58
:100BDC00003801400008014010B50446074B186866
:100BEC00074BA3FB00308009FFF76CFB002221466A
:100BFC004FF0FF30FFF728FB002010BD0000002055
:100C0C00D34D621008B5074A136843F01003136004
:100C1C000320FFF707FB0020FFF7DEFFFFF75CFF69
:100C2C00002008BD00200240024A13680133136003
:100C3C00704700BFD4000020014B1868704700BFFC
:100C4C00D400002082B0084B1B68084AA2FB032387
:100C5C005B0A00FB03F0019000BF019B5A1E01923E
:100C6C00002BF9D102B0704700000020D34D621068
:100C7C0070B582B00446036813F0010F3DD0AC4B45
:100C8C005B6803F00C03042B2ED0A94B5B6803F0BC
:100C9C000C03082B23D06368B3F5803F51D0002B95
:100CAC0055D103F1804303F504331A6822F48032E2
:100CBC001A601A6822F480221A606368002B60D0D4
:100CCC00FFF7BAFF05469A4B1B6813F4003F14D18B
:100CDC00FFF7B2FF401B6428F5D90320AFE1944B1A
:100CEC005B6813F4803FD6D0914B1B6813F4003F24
:100CFC0003D06368002B00F09F81236813F0020F70
:100D0C0065D08B4B5B6813F00C0F4ED0884B5B6837
:100D1C0003F00C03082B43D02369002B79D001225C
:100D2C00844B1A60FFF788FF0546814B1B6813F054
:100D3C00020F65D1FFF780FF401B0228F5D9032075
:100D4C007DE17B4A136843F480331360B5E7B3F558
:100D5C00A02F09D0764B1A6822F480321A601A68D8
:100D6C0022F480221A60A8E703F18043A3F53C33F8
:100D7C001A6842F480221A601A6842F480321A60AF
:100D8C009BE7FFF759FF0546694B1B6813F4003FBF
:100D9C00B3D0FFF751FF401B6428F5D903204EE177
:100DAC00634B5B6813F4803FB6D1614B1B6813F047
:100DBC00020F04D02369012B01D001203FE15C4AD2
:100DCC00136823F0F803616943EAC10313602368D5
:100DDC0013F0080F32D0A369002B6ED00122564BB2
:100DEC001A60FFF729FF0546514B5B6A13F0020F9F
:100DFC0021D1FFF721FF401B0228F5D903201EE16A
:100E0C004B4A136823F0F803616943EAC10313608A
:100E1C00DDE70022474B1A60FFF70EFF0546444BF7
:100E2C001B6813F0020FD2D0FFF706FF401B0228FD
:100E3C00F5D9032003E10120FFF704FF236813F029
:100E4C00040F00F099803A4BDB6913F0805F46D1B8
:100E5C00374BDA6942F08052DA61DB6903F0805378
:100E6C000193019B0125354B1B6813F4807F38D00F
:100E7C00E368012B49D0002B4DD103F1804303F5DE
:100E8C0004331A6A22F001021A621A6A22F004026E
:100E9C001A62E368002B5DD0FFF7CEFE0646244BAA
:100EAC001B6A13F0020F66D1FFF7C6FE801B41F2DE
:100EBC0088339842F3D90320C1E000221E4B1A60FC
:100ECC00FFF7BAFE05461A4B5B6A13F0020FB5D05A
:100EDC00FFF7B2FE401B0228F5D90320AFE0002536
:100EEC00C1E7164A136843F480731360FFF7A4FE3E
:100EFC000646124B1B6813F4807FB9D1FFF79CFE9A
:100F0C00801B6428F5D9032099E0094A136A43F041
:100F1C0001031362BDE7052B12D0054B1A6A22F0B0
:100F2C0001021A621A6A22F004021A62B1E700BFC7
:100F3C000010024000004242800442420070004017
:100F4C00414B1A6A42F004021A621A6A42F0010218
:100F5C001A629EE7FFF770FE06463B4B1B6A13F0C6
:100F6C00020F08D0FFF768FE801B41F288339842CD
:100F7C00F3D9032063E0E5B9E369002B5ED0324A74
:100F8C00526802F00C02082A5BD0022B17D0002208
:100F9C002E4B1A60FFF750FE04462B4B1B6813F0C8
:100FAC00007F47D0FFF748FE001B0228F5D903202D
:100FBC0045E0254AD36923F08053D361DCE7002256
:100FCC00224B1A60FFF738FE05461F4B1B6813F0C7
:100FDC00007F06D0FFF730FE401B0228F5D9032016
:100FEC002DE0236AB3F5803F1AD017494B6823F4E0
:100FFC007413226A606A024313434B600122134B41
:10100C001A60FFF719FE04460F4B1B6813F0007FA4
:10101C000ED1FFF711FE001B0228F5D903200EE0BC
:10102C00094A536823F40033A1680B435360DCE78F
:10103C00002004E0002002E0012000E0002002B0CB
:10104C0070BD0120FBE700BF00100240600042426F
:10105C0030B486B0164D02AC28686968AA68EB6893
:10106C000FC42B8AADF80430124B5B6803F00C02F2
:10107C00082A19D1C3F3834206A90A4412F8100CAA
:10108C0013F4803F03D10C4B03FB00F00DE0094B34
:10109C005B68C3F340430B4413F8142C074BB3FBAE
:1010AC00F2F303FB00F000E0044806B030BC7047DC
:1010BC00F41200080010024000093D0000127A00F2
:1010CC00594B1B6803F007038B420CD2564A13682A
:1010DC0023F007030B431360136803F007039942D3
:1010EC0001D00120704770B5036813F0020F06D0D1
:1010FC004E4A536823F0F0038468234353600D4633
:10110C000446036813F0010F52D04368012B23D01F
:10111C00022B28D0454A126812F0020F00F0828090
:10112C0042494A6822F0030213434B60FFF784FDE7
:10113C0006466368012B1DD0022B2AD03B4B5B6803
:10114C0013F00C0F34D0FFF777FD801B41F288337E
:10115C009842F3D9032070BD344A126812F4003F50
:10116C00DED1012070BD314A126812F0007FD7D158
:10117C00012070BD2D4B5B6803F00C03042B17D0C2
:10118C00FFF75AFD801B41F288339842F2D90320B5
:10119C0070BD264B5B6803F00C03082B08D0FFF7DF
:1011AC004BFD801B41F288339842F2D9032070BD6D
:1011BC001D4B1B6803F007039D420CD21A4A13689F
:1011CC0023F007032B431360136803F007039D42BE
:1011DC0001D0012070BD236813F0040F06D0134A10
:1011EC00536823F4E063E1680B435360236813F006
:1011FC00080F07D00D4A536823F46053216943EA62
:10120C00C1035360FFF724FF084B5B68C3F3031360
:10121C00074AD35CD840074B18600020FFF7DCFC72
:10122C00002070BD012070BD002002400010024063
:10123C000813000800000020014B1868704700BF1D
:10124C000000002008B5FFF7F7FF044B5B68C3F301
:10125C000223034AD35CD84008BD00BF00100240F3
:10126C001813000808B5FFF7E7FF044B5B68C3F3DE
:10127C00C223034AD35CD84008BD00BF0010024013
:10128C0018130008002103E00B4B5B58435004314A
:10129C000A480B4B42189A42F6D30A4A02E0002342
:1012AC0042F8043B084B9A42F9D3FEF787FFFEF74E
:1012BC005DFFFFF7E7F8704784130008000000207B
:1012CC000400002004000020D8000020FEE70000ED
:1012DC00F8B500BFF8BC08BC9E467047F8B500BF17
:0812EC00F8BC08BC9E467047E7
:1012F40002030405060708090A0B0C0D0E0F101053
:1013040001020000000000000000000001020304CC
:101314000607080900000000010203045372632F4A
:101324006D61696E2E6300005B215D206F6F7073C9
:101334002E2E2E20736F6D657468696E6720776535
:101344006E742077726F6E672100000054686973B1
:10135400206973206D652074657374696E672E2E21
:101364002E0D0A3E3E3E0D0A000000004B657970CA
:08137400726573732100000093
:04137C003101000833
:041380000D01000853
:0413840000A24A0475
:04000005080012914C
:00000001FF
