:020000040800F2
:1000000000500020D1220008B5220008B7220008C5
:10001000B9220008BB220008BD2200080000000031
:10002000000000000000000000000000BF220008E7
:10003000C122000800000000C3220008C5220008F9
:1000400019230008192300081923000819230008A0
:100050001923000819230008192300081923000890
:100060001923000819230008192300081923000880
:100070001923000819230008192300081923000870
:100080001923000819230008192300081923000860
:100090001923000819230008192300081923000850
:1000A0001923000819230008192300081923000840
:1000B0001923000819230008192300081923000830
:1000C0001923000819230008192300081923000820
:1000D00019230008612000081923000819230008CB
:1000E0001923000819230008192300080000000044
:1000F0000000000000000000000000000000000000
:0C01000000000000000000005FF808F1A3
:10010C0010B5054C237833B9044B13B10448AFF345
:10011C0000800123237010BD70000020000000003F
:10012C001C2300080C4B43B10C4810B50C49AFF321
:10013C0000800C48036823B910BD0A48036833B922
:10014C007047094B002BF7D0BDE810401847064B01
:10015C00002BF5D0184700BF000000001C2300083E
:10016C0074000020700000200000000070B50F4EDD
:10017C000F4D761BB61018BF002405D0013455F86E
:10018C00043B9847A642F9D10A4E0B4D02F0C0F839
:10019C00761BB61018BF002406D0013455F8043B6A
:1001AC009847A642F9D170BD70BD00BFF823000876
:1001BC00F8230008FC230008F82300080CB40B46B5
:1001CC00F0B56FF000454FF402774FF6FF769DB017
:1001DC0022AC54F8042B0293069302A923460194F3
:1001EC00ADF8147004950795ADF8166000F00EF993
:1001FC000022029B1A701DB0BDE8F04002B070479F
:10020C000EB40146F0B56FF000454FF402774FF68F
:10021C00FF769CB021AC54F8042B0B4B0291069149
:10022C00186802A923460194ADF81470049507953B
:10023C00ADF8166000F0EAF80022029B1A701CB0B0
:10024C00BDE8F04003B07047000000202DE9F047F6
:10025C008E680C469E421D46174628D880468889D3
:10026C0010F4906F32D04E692368096906EB46068C
:10027C00A3EB010906EBD6766B1C76104B44B3420C
:10028C00324684BF1E463246430522D511464046AF
:10029C0000F02EFD824680B34A46216900F006FC30
:1002AC00A38923F4906343F08003A38116E01E46D8
:1002BC0008682A46394600F06FFCA2682368961B32
:1002CC002B44A66023600020BDE8F0870868354603
:1002DC00EFE7404600F06AFD824650B1A6EB0903F9
:1002EC000AEB09006661C4F810A02060A3602E46DA
:1002FC00DFE72169404600F0B3FC0C23C8F800305E
:10030C00A3894FF0FF3043F04003A381BDE8F08791
:10031C002DE9F04F936883B09046002B70D0824645
:10032C000C4617688D68086842E0A38913F4906F37
:10033C002ED06569216905EB4505A0EB010B05EB9A
:10034C00D5750BF101006D103044A8422A4684BFCC
:10035C0005462A465B0538D51146504600F0C8FCC8
:10036C0000283CD05A462169019000F09FFBA289DD
:10037C00019B22F4906242F08002A281A5EB0B0259
:10038C0003EB0B006561B346354623612060A26028
:10039C005A46494600F000FCD8F80830A26820689C
:1003AC00551B58449E1BA5602060C8F808603EB3DE
:1003BC007E683B460837002EFAD0AE42D3F8009048
:1003CC00AB46B2D23546B346E2E7504600F0EEFCFF
:1003DC0003460028D2D12169504600F041FC0C2381
:1003EC0000224FF0FF30CAF80030A38943F04003DD
:1003FC00A381C8F80820C8F8042003B0BDE8F08F2A
:10040C000020C8F8040003B0BDE8F08F2DE9F04FD0
:10041C000F4689899DB00C0691460393804603D5FF
:10042C003B69002B00F0FC803023002020218DF84C
:10043C002A3099F800300125814C09908DF829104B
:10044C00002B00F09180252BCA4603D119E0252BF7
:10045C0000F093801AF8013F002BF8D1BAEB090B8E
:10046C0000F082804A465B4639464046FFF7EEFE76
:10047C00013079D0099B9AF800205B440993002A3B
:10048C0072D000234FF0FF320AF1010A0493079354
:10049C0006938DF853301A93059205E0049B001BCC
:1004AC0005FA00F0184304909AF800100522204633
:1004BC0000F0B6FAD1460AF1010A0028EED1049BED
:1004CC00D80644BF20228DF85320190748BF2B2291
:1004DC0099F8001048BF8DF853202A2971D0A1F14A
:1004EC003002092A0BD8079B19F8011F03EB830371
:1004FC0002EB4303A1F13002092AF5D907932E2907
:10050C0046D0DFF84CA10322504600F089FA48B1DE
:10051C004022049BA0EB0A0002FA00F0034309F10D
:10052C000109049399F800300622194645488DF8C4
:10053C00283009F1010900F073FA00284DD0424B24
:10054C00FBB103AB00933A46404B04A94046AFF3D2
:10055C0000800646721C07D0099B3344099399F816
:10056C000030002B7FF46FAFBB895B064CBF4FF0A4
:10057C00FF3009981DB0BDE8F08FBAEB090B80D0A5
:10058C0070E7039B073323F0070308330393E3E778
:10059C0099F8011009F101002A2928D00023A1F1B2
:1005AC003002092A05938146ABD819F8011F03EBD9
:1005BC00830302EB4303A1F13002092AF5D9059319
:1005CC009FE7039A116804320029039222DB0791FA
:1005DC0099F8011009F1010991E703AB00933A4630
:1005EC001A4B04A9404600F0CDF80646B2E7039B2F
:1005FC0009F102001A680433002A0393B8BF4FF0C4
:10060C00FF330592AEBF99F8021099F802100593CA
:10061C00814676E7494243F0020307910493D7E7FA
:10062C00402100F065FB3860386110B140237B61DC
:10063C00FAE60C234FF0FF30C8F800309AE700BF01
:10064C00BC230008C8230008000000005902000861
:10065C00C42300082DE9F0470C460969A5689146AA
:10066C008D42B8BF0D46156094F8431006461F46E0
:10067C00DDF8208011B16A1CC9F8002023689906A6
:10068C005DD5D9F800200232C9F80020236813F098
:10069C00060F19461DD1E1688A1A002AD8BF1946DF
:1006AC0017DD002504F1190A05E0E368D9F80020EC
:1006BC009B1AAB420CDD0123524639463046C047EB
:1006CC00013005F10105F0D14FF0FF30BDE8F087A6
:1006DC00216894F84330003318BF01238A060AD5E9
:1006EC003021E21882F8431094F845105A1C224429
:1006FC0082F84310023304F1430239463046C047B6
:10070C000130E1D0236803F00603042B29D0A36841
:10071C0022699342C8BF4FF0000930DD9B1A9944FF
:10072C0000251A3401E04D4529D0012322463946D3
:10073C003046C047013005F10105F4D1C4E713F090
:10074C00060F08D1E168D9F800208A1A002AD8BF10
:10075C001946A6DCBDE794F84330003318BF0123DB
:10076C00C9E7D9F80010E068A3682269A0EB010979
:10077C00934229EAE979D1DCB9F1000FD0D10020FC
:10078C00BDE8F0872DE9F0430C46097E85B06E2953
:10079C0006461746984604F1430C0C9855D00FD8D2
:1007AC00632900F0198100F2D48000295CD058290B
:1007BC0040F0E68084F845102268DFF85CE213E034
:1007CC00732900F0FB8000F289806F2900F0E28031
:1007DC00702940F0D580226842F0200222607823F4
:1007EC00DFF838E284F845300368150603F104019C
:1007FC0000F1FD8055064BBF1B881B680160016032
:10080C00D00744BF42F020022260002B40F09380BE
:10081C001021226822F020022260002284F843205A
:10082C0060680028A060C0F28B80226822F004026D
:10083C002260002B66D1002840F084806546082990
:10084C006ED0ACEB0503236111E023681A0600F1AE
:10085C00D18013F0400F0368626903F10401016059
:10086C001B6814BF1A801A60002365462361CDF8FB
:10087C0000803B4603AA21463046FFF7EBFE0130D1
:10088C0021D02A46236939463046C04701301AD058
:10089C002368E06813F0020F039B19D0C21A002AD8
:1008AC0016DD002504F1190904E0E068039BC21A67
:1008BC00AA420DDD01234A4639463046C047013075
:1008CC0005F10105F1D14FF0FF3005B0BDE8F08323
:1008DC009842B8BF184605B0BDE8F083752959D0C9
:1008EC0078294DD122687AE72D2061685B42002976
:1008FC0084F84300A16020DB0A2122F00402DFF817
:10090C0018E122606546B3FBF1F201FB12331EF8CD
:10091C000300134605F8010D002AF4D1082990D1E3
:10092C002368D9078DD5626823699A4289DC302304
:10093C00013D2B7085E710216FE70A21DFF8D8E025
:10094C00002BDFD19EF8003004F1420584F84230D0
:10095C0075E7642901D0692912D12268036815064C
:10096C0003F1040152D455064BBFB3F900301B6898
:10097C0001600160002BB7DB0A21DFF89CE04FE738
:10098C00012384F84210236104F14205002384F80A
:10099C0043306CE723681A0633D413F0400F036816
:1009AC0003F1040215BF1B881B68026002606F29EB
:1009BC0014BF0A210821DFF860E02EE703686268A3
:1009CC00191D01601D680021284600F029F800B3AC
:1009DC00401B60602061D9E70122036804F14205E5
:1009EC00191D1B68016084F842302261CEE701605A
:1009FC001B6805E703686269191D01601B681A60B2
:100A0C0032E703681A1D02601B68D0E701601B689F
:100A1C00B0E76068DEE700BFD0230008E4230008DD
:100A2C00830770B4CDB23DD0541E0AB30378AB42E9
:100A3C001FD0431C05E014F1FF3419D30278AA42ED
:100A4C0017D013F0030F184603F10103F3D1032C55
:100A5C0011D84CB30378AB420BD00444431C02E0D6
:100A6C000278AA4205D09C42184603F10103F7D143
:100A7C00002070BC7047090289B2294341EA014148
:100A8C00036806464B40A3F1013222EA030313F03C
:100A9C00803F00F1040003D1043C032CF0D8D8E7CC
:100AAC003046D7E71446D2E72046E2E7844641EACF
:100ABC00000313F0030349D1403A23D30B680360BE
:100ACC004B6843608B688360CB68C3600B690361C0
:100ADC004B6943618B698361CB69C3610B6A0362A8
:100AEC004B6A43628B6A8362CB6AC3620B6B036390
:100AFC004B6B43638B6B8363CB6BC3634030403175
:100B0C00403ADBD230320BD30B6803604B68436046
:100B1C008B688360CB68C36010301031103AF3D20D
:100B2C000C3205D351F8043B40F8043B043AF9D29B
:100B3C00043208D0D2071CBF11F8013B00F8013B6E
:100B4C0001D30B8803806046704700BF082A13D37B
:100B5C008B07B1D010F00303AED0C3F10403D21A4B
:100B6C00DB071CBF11F8013B00F8013BA4D331F8A3
:100B7C00023B20F8023B9FE7043AD9D3013A11F823
:100B8C00013B00F8013BF9D20B7803704B784370B2
:100B9C008B788370604670478842F0B50DD98B18FE
:100BAC0098420AD28418002A51D0224613F8014DDB
:100BBC00994202F8014DF9D1F0BD0F2A48D941EA0A
:100BCC0000039B0746D1154600F1100401F11003F8
:100BDC0053F8106C103D44F8106C53F80C6C0F2D3E
:100BEC0044F80C6C53F8086C04F1100444F8186CBD
:100BFC0053F8046C03F1100344F8146CE8D8A2F118
:100C0C00100323F00F0302F00F0E1033BEF1030F8D
:100C1C001944034421D90E4674461D1F56F8047B13
:100C2C00043C032C45F8047FF8D8AEF1040424F0FE
:100C3C00030404342144234402F0030262B1013B57
:100C4C000A4411F8014B8A4203F8014FF9D1F0BD67
:100C5C000346F3E70346F2E7F0BD7246EEE700BF4A
:100C6C0091B151F8043C0439002BB8BFC9181F4B83
:100C7C001A68FAB18A4230B40AD908680C18A24230
:100C8C0026D04A60196030BC70478B4203D81A4694
:100C9C005368002BF9D1146815198D420DD006D864
:100CAC0008680C189C4219D04B605160EBE70C2380
:100CBC000360E8E74A601960704709680C44111931
:100CCC0099421460DFD10ACB0C4414605360DAE70C
:100CDC0014685268204481E80500D3E71C685B68FF
:100CEC00204481E809005160CDE700BF8C00002052
:100CFC0070B5CC1C24F0030408340C2C38BF0C2425
:100D0C00002C06463BDBA14239D8274D296851B14E
:100D1C000B681B1B04D436E013681B1B1AD5114639
:100D2C004A68002AF8D16968002937D02146304634
:100D3C0000F064F8431C22D0C51C25F00305A84222
:100D4C0005D0291A304600F059F8013017D02A4640
:100D5C002C6004E00B2B0DD913601A44146002F1C3
:100D6C000B0020F00700131DC31A02D05942D150BA
:100D7C0070BD70BD8A420ED053684B60EFE70C23F8
:100D8C000020336070BD0B2B03D80A464B682B60D8
:100D9C00E5E70A46E0E70B460A46F8E7304600F07E
:100DAC002DF86860C2E700BF8C000020F8B514462F
:100DBC00F9B1C2B106460D4600F032F8844201D8B2
:100DCC002846F8BD21463046FFF792FF074670B122
:100DDC0022462946FFF76AFE29463D463046FFF774
:100DEC003FFF2846F8BDFFF73BFF2546E8E70546E1
:100DFC00E6E71146BDE8F840FFF77ABF38B50023A7
:100E0C00064C05460846236000F014F8431C00D03D
:100E1C0038BD2368002BFBD02B6038BD04020020AA
:100E2C0051F8040C0028A0F10400BCBF0B58C018EA
:100E3C00704700BF044A05491368002B08BF0B46D6
:100E4C0018441060184670479400002008020020D7
:100E5C0082B0084B1B68084AA2FB03235B0A00FB09
:100E6C0003F0019000BF019B5A1E0192002BF9D197
:100E7C0002B070476C000020D34D621070B582B088
:100E8C000446036813F0010F3DD0AC4B5B6803F0D4
:100E9C000C03042B2ED0A94B5B6803F00C03082B1E
:100EAC0023D06368B3F5803F51D0002B55D103F1AB
:100EBC00804303F504331A6822F480321A601A68EE
:100ECC0022F480221A606368002B60D000F0BEFF11
:100EDC0005469A4B1B6813F4003F14D100F0B6FF83
:100EEC00401B6428F5D90320AFE1944B5B6813F4E5
:100EFC00803FD6D0914B1B6813F4003F03D063683E
:100F0C00002B00F09F81236813F0020F65D08B4BF0
:100F1C005B6813F00C0F4ED0884B5B6803F00C032E
:100F2C00082B43D02369002B79D00122844B1A6003
:100F3C0000F08CFF0546814B1B6813F0020F65D146
:100F4C0000F084FF401B0228F5D903207DE17B4A89
:100F5C00136843F480331360B5E7B3F5A02F09D0C1
:100F6C00764B1A6822F480321A601A6822F48022B6
:100F7C001A60A8E703F18043A3F53C331A6842F4E6
:100F8C0080221A601A6842F480321A609BE700F0E3
:100F9C005DFF0546694B1B6813F4003FB3D000F0AE
:100FAC0055FF401B6428F5D903204EE1634B5B6869
:100FBC0013F4803FB6D1614B1B6813F0020F04D0C1
:100FCC002369012B01D001203FE15C4A136823F017
:100FDC00F803616943EAC1031360236813F0080F37
:100FEC0032D0A369002B6ED00122564B1A6000F050
:100FFC002DFF0546514B5B6A13F0020F21D100F017
:10100C0025FF401B0228F5D903201EE14B4A13682B
:10101C0023F0F803616943EAC1031360DDE70022A2
:10102C00474B1A6000F012FF0546444B1B6813F047
:10103C00020FD2D000F00AFF401B0228F5D9032082
:10104C0003E10120FFF704FF236813F0040F00F005
:10105C0099803A4BDB6913F0805F46D1374BDA69E4
:10106C0042F08052DA61DB6903F080530193019BFB
:10107C000125354B1B6813F4807F38D0E368012BB6
:10108C0049D0002B4DD103F1804303F504331A6A88
:10109C0022F001021A621A6A22F004021A62E36850
:1010AC00002B5DD000F0D2FE0646244B1B6A13F0D9
:1010BC00020F66D100F0CAFE801B41F288339842C1
:1010CC00F3D90320C1E000221E4B1A6000F0BEFED3
:1010DC0005461A4B5B6A13F0020FB5D000F0B6FE52
:1010EC00401B0228F5D90320AFE00025C1E7164AC2
:1010FC00136843F48073136000F0A8FE0646124B8D
:10110C001B6813F4807FB9D100F0A0FE801B64280B
:10111C00F5D9032099E0094A136A43F001031362DD
:10112C00BDE7052B12D0054B1A6A22F001021A6298
:10113C001A6A22F004021A62B1E700BF00100240E2
:10114C00000042428004424200700040414B1A6A47
:10115C0042F004021A621A6A42F001021A629EE715
:10116C0000F074FE06463B4B1B6A13F0020F08D0CE
:10117C0000F06CFE801B41F288339842F3D90320B7
:10118C0063E0E5B9E369002B5ED0324A526802F0A5
:10119C000C02082A5BD0022B17D000222E4B1A60AF
:1011AC0000F054FE04462B4B1B6813F0007F47D015
:1011BC0000F04CFE001B0228F5D9032045E0254A1F
:1011CC00D36923F08053D361DCE70022224B1A60F1
:1011DC0000F03CFE05461F4B1B6813F0007F06D049
:1011EC0000F034FE401B0228F5D903202DE0236AC1
:1011FC00B3F5803F1AD017494B6823F47413226A55
:10120C00606A024313434B600122134B1A6000F0D7
:10121C001DFE04460F4B1B6813F0007F0ED100F02F
:10122C0015FE001B0228F5D903200EE0094A53686D
:10123C0023F40033A1680B435360DCE7002004E087
:10124C00002002E0012000E0002002B070BD01206F
:10125C00FBE700BF001002406000424230B486B091
:10126C00164D02AC28686968AA68EB680FC42B8A13
:10127C00ADF80430124B5B6803F00C02082A19D14C
:10128C00C3F3834206A90A4412F8100C13F4803FEE
:10129C0003D10C4B03FB00F00DE0094B5B68C3F36F
:1012AC0040430B4413F8142C074BB3FBF2F303FB32
:1012BC0000F000E0044806B030BC7047342300084E
:1012CC000010024000093D0000127A00594B1B68C7
:1012DC0003F007038B420CD2564A136823F0070322
:1012EC000B431360136803F00703994201D00120EC
:1012FC00704770B5036813F0020F06D04E4A53685E
:10130C0023F0F0038468234353600D4604460368BE
:10131C0013F0010F52D04368012B23D0022B28D09D
:10132C00454A126812F0020F00F0828042494A6866
:10133C0022F0030213434B6000F088FD06466368FD
:10134C00012B1DD0022B2AD03B4B5B6813F00C0FEA
:10135C0034D000F07BFD801B41F288339842F3D9E6
:10136C00032070BD344A126812F4003FDED1012014
:10137C0070BD314A126812F0007FD7D1012070BDC8
:10138C002D4B5B6803F00C03042B17D000F05EFDB3
:10139C00801B41F288339842F2D9032070BD264B52
:1013AC005B6803F00C03082B08D000F04FFD801B8A
:1013BC0041F288339842F2D9032070BD1D4B1B6853
:1013CC0003F007039D420CD21A4A136823F007035B
:1013DC002B431360136803F007039D4201D00120D7
:1013EC0070BD236813F0040F06D0134A536823F41E
:1013FC00E063E1680B435360236813F0080F07D0D8
:10140C000D4A536823F46053216943EAC1035360C6
:10141C00FFF724FF084B5B68C3F30313074AD35C45
:10142C00D840074B1860002000F0E0FC002070BD95
:10143C00012070BD0020024000100240A0230008D3
:10144C006C000020014B1868704700BF6C00002036
:10145C0008B5FFF7F7FF044B5B68C3F30223034A9D
:10146C00D35CD84008BD00BF00100240B023000878
:10147C0008B5FFF7E7FF044B5B68C3F3C223034ACD
:10148C00D35CD84008BD00BF00100240B023000858
:10149C00074AD36823F4E0631B041B0C000200F41E
:1014AC00E060184340F0BF6040F40030D0607047FB
:1014BC0000ED00E030B4164BDB68C3F30223C3F13C
:1014CC000704042C28BF04241D1D062D17D9033B2B
:1014DC00012505FA04F4013C2140994005FA03F377
:1014EC00013B1340194300280BDB0901C9B200F181
:1014FC00604000F5614080F8001330BC7047002359
:10150C00E6E700F00F000901C9B2024B1954F4E7E9
:10151C0000ED00E014ED00E0420900F01F00012393
:10152C0003FA00F0014B43F82200704700E100E0A1
:10153C000138B0F1807F0AD2064B5860F021064A80
:10154C0082F823100020986007221A60704701204F
:10155C00704700BF10E000E000ED00E0042805D06B
:10156C00054A136823F0040313607047024A13689A
:10157C0043F004031360704710E000E0704708B5B7
:10158C00FFF7FCFF08BD0268D36823F49073D360A7
:10159C000268536923F001035361202380F83A3029
:1015AC00704790F83930DBB2212B01D00220704704
:1015BC008368B3F5805F17D00268036A591C016217
:1015CC001B785360C38C9BB2013B9BB2C384DBB9C9
:1015DC000268D36823F08003D3600268D36843F0B9
:1015EC004003D36000207047036A02681B88C3F372
:1015FC000803536003691BB9036A02330362E1E712
:10160C00036A01330362DDE7002070472DE9F047E0
:10161C0005460268136923F44053C1680B431361F8
:10162C00836802691343426913430168CA6822F450
:10163C00B05222F00C021343CB600268536923F4BE
:10164C00407381690B435361D0F80080594B984526
:10165C0057D0FFF7FDFE00EB800000EB80006C68BC
:10166C00A400B0FBF4F4544FA7FB04346409260126
:10167C00FFF7EEFE00EB800000EB80006C68A4002E
:10168C00B0FBF4FAFFF7E4FE00EB800000EB800007
:10169C006C68A400B0FBF4F4A7FB043464094FF0AD
:1016AC00640909FB14A424013234A7FB0434640933
:1016BC0004F0F0043444FFF7CBFE00EB800000EBA9
:1016CC0080006E68B600B0FBF6F6FFF7C1FE00EBCB
:1016DC00800000EB80006B689B00B0FBF3F0A7FB75
:1016EC000030400909FB10694FEA091909F1320968
:1016FC00A7FB0937C7F343172744C8F80870BDE8A0
:10170C00F087FFF7B5FE00EB800000EB80006C6803
:10171C00A400B0FBF4F4284FA7FB043464092601A1
:10172C00FFF7A6FE00EB800000EB80006C68A400C5
:10173C00B0FBF4FAFFF79CFE00EB800000EB80009E
:10174C006C68A400B0FBF4F4A7FB043464094FF0FC
:10175C00640909FB14A424013234A7FB0434640982
:10176C0004F0F0043444FFF783FE00EB800000EB40
:10177C0080006E68B600B0FBF6F6FFF779FE00EB62
:10178C00800000EB80006B689B00B0FBF3F3A7FBC1
:10179C0003235B0909FB13694FEA091909F13209A3
:1017AC00A7FB0937C7F343172744C8F80870BDE8EF
:1017BC00F08700BF003801401F85EB512DE9F04147
:1017CC0005460F4616469846069C2B681B6837EA5A
:1017DC0003030CBF01230023B3421ED1B4F1FF3F1E
:1017EC00F3D02CB100F032FBA0EB08008442ECD219
:1017FC002A68D36823F4D073D3602A68536923F022
:10180C0001035361202385F8393085F83A300023E1
:10181C0085F838300320BDE8F0810020BDE8F08168
:10182C0058B310B5044690F839300BB3242384F820
:10183C0039302268D36823F40053D3602046FFF775
:10184C00E5FE2268136923F49043136122685369FF
:10185C0023F02A0353612268D36843F40053D36006
:10186C000020E063202384F8393084F83A3010BD2E
:10187C0080F8383000F0E2FCD8E7012070472DE901
:10188C00F04182B01E4690F83930DBB2202B04D0E8
:10189C000223184602B0BDE8F08104460D4690467E
:1018AC00002955D0002A55D090F83830012B01D1A1
:1018BC000223EEE7012380F838300023C363212391
:1018CC0080F8393000F0C2FA0746A4F82480A4F856
:1018DC00268010E000963B46002280212046FFF730
:1018EC006DFF002838D122682B88C3F3080353609E
:1018FC002369CBB90235E38C9BB2BBB1E38C9BB2B1
:10190C00013B9BB2E384A368B3F5805FE2D0009601
:10191C003B46002280212046FFF750FFF0B9236898
:10192C002A785A600135E6E70135E4E700963B4634
:10193C00002240212046FFF741FF034608B1032354
:10194C00A7E7202284F83920002284F83820A0E769
:10195C0001239EE701239CE703239AE7032398E7DF
:10196C0090F83930DBB2202B01D002207047A9B19E
:10197C00B2B190F83830012B14D001628284C28449
:10198C000023C363212280F8392080F838300168A5
:10199C00CA6842F08002CA6018467047012070473E
:1019AC00012070470220704790F83A30DBB2202BB0
:1019BC0001D002207047F9B102B390F83830012BF6
:1019CC001ED081628285C2850023C363222280F8E7
:1019DC003A2080F838300168CA6842F48072CA60D4
:1019EC0001684A6942F001024A610168CA6842F022
:1019FC002002CA60184670470120704701207047CA
:101A0C0002207047704708B50168CB6823F040038B
:101A1C00CB60202380F83930FFF7F4FF002008BD9D
:101A2C00704708B590F83A30DBB2222B01D0022077
:101A3C0008BD8368B3F5805F0FD003690BBB836A65
:101A4C005A1C8262026852681A70C38D9BB2013BA9
:101A5C009BB2C385F3B1002008BD826A036943B908
:101A6C0003685B68C3F308031380836A02338362E1
:101A7C00EBE703685B68DBB21380836A0133836234
:101A8C00E3E7826A531C836203685B6803F07F039D
:101A9C001370DAE70268D36823F02003D36002687E
:101AAC00D36823F48073D3600268536923F0010375
:101ABC005361202380F83A30FFF7B2FF002008BDB5
:101ACC007047000010B5044602681368D16852696B
:101ADC0013F00F0005D113F0200F02D011F0200FDE
:101AEC0053D1002867D012F0010202D111F4907F7B
:101AFC0061D013F0010F06D011F4807F03D0E06B9E
:101B0C0040F00100E06313F0040F04D01AB1E06B55
:101B1C0040F00200E06313F0020F04D01AB1E06B46
:101B2C0040F00400E06313F0080F04D01AB1E26B2C
:101B3C0042F00802E263E26B002A48D013F0200F57
:101B4C0002D011F0200F24D123685B6903F040030D
:101B5C00E26B12F0080F00D13BB32046FFF713FDE8
:101B6C0023685A6912F0400F1BD05A6922F04002C8
:101B7C005A61636B8BB11A4A5A63606B00F0A2FA1C
:101B8C0028B3606B436B984710BD2046FFF749FFA5
:101B9C0010BD2046FFF745FFD6E72046FFF790FF24
:101BAC0010BD2046FFF78CFF10BD2046FFF788FFC5
:101BBC000023E36310BD13F0800F02D011F0800FEF
:101BCC0006D113F0400F02D011F0400F04D110BD1C
:101BDC002046FFF7E6FC10BD2046FFF714FFF6E7A2
:101BEC00F11B000808B5406A0023C385C384FFF7C6
:101BFC0067FF08BDF0B583B00026344671E0002DB8
:101C0C0000F0A180012D00D1CE68FF2B00F2AF8037
:101C1C008646FF2B00F2AE80A500DEF800200F27D1
:101C2C00AF4022EA070206FA05F52A43CEF8002057
:101C3C004A6812F0805F53D0634A956945F00105FC
:101C4C009561926902F001020192019AA508AF1CFC
:101C5C005E4A52F8272004F00307BF004FF00F0E26
:101C6C000EFA07FE22EA0E02DFF870E1704500F072
:101C7C0088800EF5806E704500F086800EF5806EC3
:101C8C00704500F084800EF5806E704576D04FF074
:101C9C00040E0EFA07F73A4302354C4F47F825204D
:101CAC004A6812F4803F75D0494D2A681A432A605D
:101CBC004A6812F4003F73D0454D6A681A436A6053
:101CCC004A6812F4801F71D0414DAA681A43AA6069
:101CDC004A6812F4001F6FD03D4DEA681343EB6065
:101CEC0001340F2C6ED80122A2400B6813409A428B
:101CFC00F6D14D68122D30D00BD8022D2AD07FF69C
:101D0C007EAF032D2FD0112D7FF47FAFCE6804361C
:101D1C007BE7304FBD4216D00CD92F4FBD4212D0AD
:101D2C0007F58037BD420ED0A7F58017BD427FF472
:101D3C006CAF08E0A7F58017BD4204D007F58037DB
:101D4C00BD427FF462AF8D687DB1012D08D0426138
:101D5C0008265AE7CE68083657E7CE680C3654E7A3
:101D6C000261082651E700264FE704264DE700F1F3
:101D7C00040E4EE7A4F10805AD004EE74FF0030E3C
:101D8C0087E74FF0000E84E74FF0010E81E74FF02C
:101D9C00020E7EE70E4D2A6822EA03022A6087E7CC
:101DAC000B4D6A6822EA03026A6089E7084DAA684B
:101DBC0022EA0302AA608BE7054DEA6822EA0303D4
:101DCC00EB608DE703B0F0BD001002400000014055
:101DDC0000040140000021100000311000080140F7
:101DEC0012B90904016170470161704710B50446CE
:101DFC00074B1868074BA3FB00308009FFF798FBD3
:101E0C00002221464FF0FF30FFF754FB002010BD9D
:101E1C006C000020D34D621008B5074A136843F0DC
:101E2C00100313600320FFF733FB0020FFF7DEFFE6
:101E3C0000F0BAF9002008BD00200240024A1368E5
:101E4C0001331360704700BFA0000020014B1868DD
:101E5C00704700BFA000002010B586B0134B9A69E4
:101E6C0042F010029A619A6902F010020092009AF4
:101E7C009A6942F004029A619B6903F0040301938E
:101E8C00019B0B4C00224FF400512046FFF7A8FF9A
:101E9C004FF400530293012303930223059302A9E9
:101EAC002046FFF7A7FE06B010BD00BF0010024091
:101EBC000010014080B5E4B00B4E0C4C06F120072D
:101ECC0035460FCD20606160A260E3602E46103471
:101EDC00BD42F5D12B8823804FF47A7323226946B7
:101EEC000348FFF7CCFCE7E7542300081801002057
:101EFC008401002008B50B480B4B03604FF4E13311
:101F0C00436000238360C36003610C2242618361E0
:101F1C00C361FFF785FC00B908BDC5210348FFF775
:101F2C00C9FF00BF8401002000380140482300088D
:101F3C0000B591B00223069301230A9310230B934F
:101F4C0000230D9306A8FEF799FFF0B90F23019318
:101F5C000021029103910491059101A8FFF7B6F9B4
:101F6C00B8B9FFF76FFA0D4BA3FB00308009FFF7F0
:101F7C00DFFA0420FFF7F2FA002211464FF0FF308F
:101F8C00FFF798FA11B05DF804FB9A210448FFF7AB
:101F9C0091FFA8210248FFF78DFF00BFD34D6210BF
:101FAC004823000808B5FFF737FFFFF7C1FFFFF71D
:101FBC0053FFFFF79FFF1E4E3368DA6842F0200292
:101FCC00DA60DA6842F04002DA601A4D1A4C0FCC33
:101FDC0028606960AA60EB6003CC28616961228883
:101FEC00A3782A83AB765A2229463046FFF7B8FCF1
:101FFC00052212490E48FFF7D7FC114B1B78DBB2B8
:10200C00012BF5D100220E4B1A700E4D0E4A0F49C2
:10201C002846FEF7F5F8064C64233C222946204658
:10202C00FFF72DFC05220A492046FFF799FCDFE754
:10203C008401002018010020782300087C01002076
:10204C0098000020C4010020A40000209423000864
:10205C006400002038B5164D2846FFF733FD154CAB
:10206C00012221462846FFF79FFC134B1A68237860
:10207C0012498B540D2B0CD00A2B0AD06423052249
:10208C000C490B48FFF7FBFB0B4A13680133136039
:10209C0038BD01220A4B1A706423322207490448C6
:1020AC00FFF7EDFB0023034A1370034A1360E5E7C7
:1020BC00840100207C0100209C000020A400002052
:1020CC009800002008B590F82130022B03D004238F
:1020DC008363012008BD0268136823F00E031360AC
:1020EC000268136823F0010313600368194A9342D2
:1020FC0014D0143293421FD0143293421ED0143297
:10210C0093421ED0143293421ED01432934202D00A
:10211C004FF0807203E04FF4801200E001220E4B6E
:10212C005A60012380F82130002380F82030436B63
:10213C006BB19847002008BD1022F0E74FF4807275
:10214C00EDE74FF48052EAE74FF48032E7E70020E6
:10215C0008BD00BF08000240000002400F4B1A6887
:10216C0042F001021A6059680D4A0A405A601A6816
:10217C0022F0847222F480321A601A6822F48022CF
:10218C001A605A6822F4FE025A604FF41F029A60D9
:10219C004FF00062034B9A60704700BF0010024082
:1021AC000000FFF800ED00E000B583B0214B9A6908
:1021BC0042F001029A619B6903F001030193019BB8
:1021CC000320FFF765F9002211466FF00B00FFF7B3
:1021DC0071F9002211466FF00A00FFF76BF900222B
:1021EC0011466FF00900FFF765F9002211466FF0F8
:1021FC000400FFF75FF9002211466FF00300FFF7B0
:10220C0059F9002211466FF00100FFF753F9002233
:10221C0011464FF0FF30FFF74DF9074B5A6822F08B
:10222C00E0625A605A6842F000725A6003B05DF87E
:10223C0004FB00BF00100240000001400268184B74
:10224C009A4200D0704730B587B003F558439A696D
:10225C0042F480429A619B6903F480430193019B91
:10226C004FF40073029302230393032305930D4D44
:10227C0002A92846FFF7BEFC4FF4806302930024AA
:10228C000394049402A92846FFF7B4FC2246214685
:10229C002520FFF70FF92520FFF73EF907B030BDD9
:1022AC0000380140000801407047FEE7FEE7FEE7FA
:1022BC00FEE770477047704708B5FFF7BFFDFFF7A3
:1022CC005EF908BD002103E00B4B5B584350043111
:1022DC000A480B4B42189A42F6D30A4A02E00023F2
:1022EC0042F8043B084B9A42F9D3FFF737FFFDF74E
:1022FC003DFFFFF757FE7047002400080000002048
:10230C00700000207000002008020020FEE7000092
:10231C00F8B500BFF8BC08BC9E467047F8B500BFC6
:08232C00F8BC08BC9E46704796
:1023340002030405060708090A0B0C0D0E0F101002
:10234400010200005372632F6D61696E2E630000F9
:102354005B215D206F6F70732E2E2E20736F6D6561
:102364007468696E672077656E742077726F6E6724
:102374002100000054686973206973206D6520741E
:10238400657374696E672E2E2E0D0A3E3E3E000064
:102394000D0A436F6D6D3A202573000000000000A4
:1023A4000000000001020304060708090000000001
:1023B4000102030443000000232D302B2000000001
:1023C400686C4C006566674546470000303132331F
:1023D400343536373839414243444546000000001D
:1023E4003031323334353637383961626364656687
:0423F40000000000E5
:0423F80031010008A7
:0423FC000D010008C7
:1024000004000020000000000000000000000000A8
:1024100000000000000000000000000000000000BC
:1024200000000000B82300080000000000000000C9
:10243000000000000000000000000000000000009C
:10244000000000000000000000000000000000008C
:10245000000000000000000000000000000000007C
:10246000000000000D0A3E3E3E00000000A24A04AB
:04000005080022D1FC
:00000001FF
