:020000040800F2
:100000000050002005230008E9220008EB22000828
:10001000ED220008EF220008F12200080000000095
:10002000000000000000000000000000F3220008B3
:10003000F522000800000000F7220008F92200085D
:100040004D2300084D2300084D2300084D230008D0
:100050004D2300084D2300084D2300084D230008C0
:100060004D2300084D2300084D2300084D230008B0
:100070004D2300084D2300084D2300084D230008A0
:100080004D2300084D2300084D2300084D23000890
:100090004D2300084D2300084D2300084D23000880
:1000A0004D2300084D2300084D2300084D23000870
:1000B0004D2300084D2300084D2300084D23000860
:1000C0004D2300084D2300084D2300084D23000850
:1000D0004D2300088D2000084D2300084D23000803
:1000E0004D2300084D2300084D23000800000000A8
:1000F0000000000000000000000000000000000000
:0C01000000000000000000005FF808F1A3
:10010C000348044B834202D0034B03B1184770479A
:10011C007000002070000020000000000548064917
:10012C00091A891001EBD171491002D0034B03B1AC
:10013C00184770477000002070000020000000007D
:10014C0010B5064C237843B9FFF7DAFF044B13B113
:10015C000448AFF300800123237010BD7000002011
:10016C00000000005023000808B5044B1BB10449E3
:10017C000448AFF30080BDE80840CFE70000000062
:10018C00740000205023000870B50D4E0D4D761BE9
:10019C00B61006D00024013455F8043B9847A6420B
:1001AC00F9D1094E094D02F0CDF8761BB61006D0E8
:1001BC000024013455F8043B9847A642F9D170BD90
:1001CC0028240008282400082C24000828240008CF
:1001DC000CB470B56FF000459CB020AC54F8042BF7
:1001EC00094E02910691234602A901940795CDE987
:1001FC00045600F009F90022029B1A701CB0BDE8ED
:10020C00704002B0704700BF0802FFFF0EB40346F7
:10021C0030B56FF000449CB01FA951F8042B0A486C
:10022C000A4D0293069301910B46006802A90794AC
:10023C00CDE9044500F0E8F80022029B1A701CB0CE
:10024C00BDE8304003B07047000000200802FFFFFB
:10025C002DE9F0478E6880469E420C461D46174697
:10026C00086828D8B1F80CC01CF4906F31D0D1E9D3
:10027C00041606EB460606EBD676A0EB0109013315
:10028C0076104B44B342324684BF1E4632461CF4B1
:10029C00806F20D01146404600F03AFD824670B384
:1002AC004A46216900F008FCA38923F4906343F0CB
:1002BC008003A38114E01E462A46394600F072FCE6
:1002CC000020A2682368961B2B44A6602360BDE81F
:1002DC00F0873546F0E7404600F07EFD824650B18F
:1002EC00A6EB09030AEB09006661C4F810A02060B4
:1002FC00A3602E46E0E72169404600F0B5FC0C23D4
:10030C00C8F80030A3894FF0FF3043F04003A381BD
:10031C00DDE700BF2DE9F04F936883B09046002BCA
:10032C006CD0176882460C46086808378D6842E026
:10033C00A38913F4906F2DD0D4E9041505EB450572
:10034C00A0EB010B05EBD575701C6D105844A84241
:10035C002A4684BF05462A465B0536D511465046CB
:10036C0000F0D6FC00283AD05A462169019000F0E2
:10037C00A3FBA289019B22F4906242F08002A2812D
:10038C00A5EB0B0203EB0B006561B346354623610D
:10039C002060A2605A46494600F004FCD8F80830A8
:1003AC00A2682068551B58449E1BA5602060C8F8A5
:1003BC0008601EB3083757E90296AB46002EF9D0F9
:1003CC00AE42B5D23546B346E4E7504600F004FDE4
:1003DC0003460028D4D12169504600F045FC0C237B
:1003EC0000224FF0FF30CAF80030A38943F04003DD
:1003FC00A381C8E9012203B0BDE8F08F0020C8F842
:10040C00040003B0BDE8F08F2DE9F04F88468989D0
:10041C009DB00D061446CDE9020304D5D8F8103072
:10042C00002B00F016813023002120228DF82A3079
:10043C002378012609918DF829208F4D002B00F08F
:10044C009680252BA24603D119E0252B00F0C780FE
:10045C001AF8013F002BF8D1BAEB040B00F087809F
:10046C0022465B4641460298FFF7F2FE01307ED0F1
:10047C00099B9AF800205B440993002A77D000234B
:10048C004FF0FF320AF1010A0493CDE906338DF8DF
:10049C0053301A93059206E0CA46049B401B06FA99
:1004AC0000F018430490D146052219F8011B284688
:1004BC0000F0BCFACB460028EED1049BD80644BF12
:1004CC0020228DF85320190748BF2B229AF80010D0
:1004DC0048BF8DF853202A2953D0A1F13003092BA2
:1004EC0000F2B180079A02E0CA4609F1010999F8B5
:1004FC00001002EB820203EB4202A1F13003092B44
:10050C00CB46F1D90AF1020907922E2946D05B4C51
:10051C000322204600F08AFA00285DD04021001BFF
:10052C00049A01FA00F00243049209F1010499F8CB
:10053C0000300622194652488DF8283000F076FA21
:10054C0000285ED04F4B002B4ED003AB009342469D
:10055C004D4B04A90298AFF3008007467A1C06D0D5
:10056C00099B3B4409932378002B7FF46AAFB8F8BE
:10057C000C305B064CBF4FF0FF3009981DB0BDE846
:10058C00F08F039A116804320029039233DB079130
:10059C009AF801100AF102092E29B8D19BF8011022
:1005AC002A2938D1039B354C1A680BF10200002A1A
:1005BC000592B7BF4FF0FF329BF802109BF8021068
:1005CC00059204330BF1030903228346204603935F
:1005DC0000F02CFA0028A1D14C46D946A7E7BAEB7B
:1005EC00040B3FF44CAF3BE7039B073323F00703AB
:1005FC0008330393B4E7494243F002030791049391
:10060C00C6E703AB009342461F4B04A9029800F0C7
:10061C00CBF80746A2E70022A1F130000928059289
:10062C0001D912E0D94699F8011002EB820200EBD5
:10063C004202A1F13000092809F1010BF2D909F1AC
:10064C000209059263E7D3465FE7CB4609F101093E
:10065C005DE7402100F05CFBC8F80000C8F8100012
:10066C0018B14023C8F81430DDE60C23029A4FF081
:10067C00FF30136082E700BFEC230008F42300086E
:10068C00F8230008000000005D0200082DE9F04787
:10069C000C460969A56891468D42B8BF0D46156098
:1006AC0094F8431006461F46DDF8208011B16A1CF1
:1006BC00C9F80020236899065FD5D9F800200232CA
:1006CC00C9F80020236813F0060F19461DD1E16804
:1006DC008A1A002AD8BF194617DD002504F1190A19
:1006EC0005E0E368D9F800209B1AAB420CDD01232E
:1006FC00524639463046C047013005F10105F0D16C
:10070C004FF0FF30BDE8F087216894F84330003398
:10071C0018BF01238A060AD53021E21882F843104B
:10072C0094F845105A1C224482F84310023304F109
:10073C00430239463046C0470130E1D0D4E90220AB
:10074C002368D9F8005003F00603042B21691AD052
:10075C008A421FDD4FF00009521A914400251A34C9
:10076C0001E04D4516D00123224639463046C0479C
:10077C00013005F10105F4D1C2E713F0060F0CD1DD
:10078C00D9F80020A3E7401B8A4220EAE079E3DC99
:10079C000028E3DC0020BDE8F08794F843300033F8
:1007AC0018BF0123C3E700BF2DE9F0430C46097EB7
:1007BC0085B06E2906461746984604F1430C0C9DED
:1007CC004AD00FD8632900F0FE8000F2BE800029C9
:1007DC004ED0582940F0E08084F845102268DFF8AC
:1007EC0044E212E0732900F0C5807AD86F2900F03A
:1007FC00DA80702940F0D080206840F0200222601E
:10080C007823DFF824E284F845302B68191D1B6827
:10081C002960150602D4500648BF9BB2D10744BFCD
:10082C0042F020022260002B6CD1D4E9001284F833
:10083C004330002A21F020032360A2607DDB21F0ED
:10084C00240121601021002A78D1654608294ED058
:10085C00ACEB050323610EE02B682268181D61695F
:10086C00286015061B6802D4500600F1C68019607A
:10087C00002365462361CDF800803B4603AA214640
:10088C003046FFF703FF013020D02A462369394652
:10089C003046C047013019D02268039B9207E068AC
:1008AC0019D5C21A002A16DD002504F1190904E035
:1008BC00E068039BC21AAA420DDD01234A46394661
:1008CC003046C047013005F10105F1D14FF0FF3042
:1008DC0005B0BDE8F0839842B8BF184605B0BDE836
:1008EC00F08375295FD0782956D1226888E7236870
:1008FC00DB07ADD5626823699A42A9DC3023013D40
:10090C002B70A5E71021002284F843206268002A8E
:10091C00A2602CDB206820F004002060002B92D019
:10092C006546B3FBF1F201FB12331EF803001346CC
:10093C0005F8010D002AF4D188E710219EF800304B
:10094C0004F1420584F8423080E7642901D069291A
:10095C0022D120682B68010603F1040245D51B68DF
:10096C002A60002B4BDB0A21DFF8B8E0CEE7002B26
:10097C00D6D1E3E72B686268191D29601D68002138
:10098C00284600F053F8002845D0401B60602061D9
:10099C00002384F843306EE7012384F8421023616E
:1009AC0004F14205F4E720682B6810F0800F03F186
:1009BC00040213D01B682A606F290CBF08210A217E
:1009CC00DFF860E09FE701222B68191D1B68296086
:1009DC0004F1420584F842302261D9E7400653BF46
:1009EC001B682A601B882A60E6E7410653BF1B6818
:1009FC002A60B3F900302A60B3E7198038E72D215B
:100A0C0062685B42002A84F84310A26005DB0A216D
:100A1C00DFF810E07FE76068B9E7DFF808E00A214B
:100A2C007EE700BF0024000814240008830770B47C
:100A3C00CDB23DD0541E0AB30378AB421FD0431C39
:100A4C0005E014F1FF3419D30278AA4217D013F041
:100A5C00030F184603F10103F3D1032C11D84CB347
:100A6C000378AB420BD00444431C02E00278AA4248
:100A7C0005D09C42184603F10103F7D1002070BC4D
:100A8C00704706460A0292B22A4342EA024233688F
:100A9C0030465340A3F1013121EA030313F0803FA8
:100AAC0006F10406DCD1043C032C3046EFD8D6E723
:100ABC001446D2E72046E2E7844641EA000313F0ED
:100ACC00030349D1403A23D30B6803604B6843605E
:100ADC008B688360CB68C3600B6903614B694361AE
:100AEC008B698361CB69C3610B6A03624B6A436296
:100AFC008B6A8362CB6AC3620B6B03634B6B43637E
:100B0C008B6B8363CB6BC36340304031403ADBD299
:100B1C0030320BD30B6803604B6843608B68836087
:100B2C00CB68C36010301031103AF3D20C3205D3BD
:100B3C0051F8043B40F8043B043AF9D2043208D093
:100B4C00D2071CBF11F8013B00F8013B01D30B8805
:100B5C0003806046704700BF082A13D38B07B1D0BF
:100B6C0010F00303AED0C3F10403D21ADB071CBF91
:100B7C0011F8013B00F8013BA4D331F8023B20F8FB
:100B8C00023B9FE7043AD9D3013A11F8013B00F834
:100B9C00013BF9D20B7803704B7843708B788370E0
:100BAC00604670478842F0B40DD98B1883420AD93D
:100BBC00841832B1224613F8014D994202F8014DC6
:100BCC00F9D1F0BC70470F2A48D940EA01039B07C2
:100BDC0046D1A2F110031B0901F1200707EB031703
:100BEC0001F1100400F1100554F8106C103445F8A4
:100BFC00106C54F81C6C103545F81C6C54F8186CBF
:100C0C0045F8186C54F8146CBC4245F8146CEBD1D4
:100C1C00013302F00F051B01032D1944034421D9A4
:100C2C000F462C461E1F57F804CB043C032C46F8E9
:100C3C0004CFF8D82C1F24F003040434234421449B
:100C4C0002F00302002ABCD0013B0A4411F8014B0C
:100C5C00914203F8014FF9D1F0BC70470346F1E71C
:100C6C000346F1E72A46EDE7002934D038B551F8B0
:100C7C00043C0C1F002BB8BFE418054600F0E4F848
:100C8C00224B1A682AB1A2420DD9216860188242FF
:100C9C0035D0626028461C60BDE8384000F0D6B8FC
:100CAC00A34203D81A465368002BF9D11168501887
:100CBC00A04218D010D821686018834203BFD3E932
:100CCC0000030918C4E90013636054602846BDE8AA
:100CDC00384000F0BBB870470C2328462B60BDE8A9
:100CEC00384000F0B3B820680144501883421160BA
:100CFC00ECD1D3E900030144C2E90013E6E7D2E9E1
:100D0C0000020144C4E90012C4E700BF8C000020BB
:100D1C00F8B5CD1C25F0030508350C2D38BF0C2576
:100D2C00002D06463ADBA94238D82A4F00F08CF841
:100D3C003A6852B113685B1B04D433E023685B1B25
:100D4C0025D522465468002CF8D1796800293BD06F
:100D5C002946304600F066F8431C2AD0C41C24F007
:100D6C000304A04205D0211A304600F05BF8013094
:100D7C001FD02560304600F069F804F10B0020F01C
:100D8C000700231DC31A01D05A42E250F8BD0B2BA9
:100D9C000BD8944215D063685360EBE70C2300200A
:100DAC003360F8BD0B2B0BD9144623601C44256013
:100DBC00E0E70C233046336000F048F80020F8BD23
:100DCC0054683C601446D5E7304600F02BF8786048
:100DDC00BEE700BF8C000020E1B1F8B51446E2B1CB
:100DEC0006460D4600F034F8A04202D32F46384692
:100DFC00F8BD21463046FFF78BFF07460028F6D09A
:100E0C0022462946FFF758FE30462946FFF72CFFAD
:100E1C003846F8BD1146FFF77BBFFFF725FF274685
:100E2C00E5E700BF38B50023064C054608462360AD
:100E3C0000F016F8431C00D038BD2368002BFBD003
:100E4C002B6038BD08020020704700BF704700BF00
:100E5C0051F8043C181F002BBCBF0B58C01870472E
:100E6C00044A05491368002B08BF0B461844106050
:100E7C0018467047940000201002002082B0084BE6
:100E8C001B68084AA2FB03235B0A00FB03F00190DA
:100E9C0000BF019B5A1E0192002BF9D102B0704782
:100EAC006C000020D34D621070B582B0044603680C
:100EBC0013F0010F3DD0AC4B5B6803F00C03042B1B
:100ECC002ED0A94B5B6803F00C03082B23D063686E
:100EDC00B3F5803F51D0002B55D103F1804303F57E
:100EEC0004331A6822F480321A601A6822F48022C1
:100EFC001A606368002B60D000F0BEFF05469A4B69
:100F0C001B6813F4003F14D100F0B6FF401B64289B
:100F1C00F5D90320AFE1944B5B6813F4803FD6D036
:100F2C00914B1B6813F4003F03D06368002B00F057
:100F3C009F81236813F0020F65D08B4B5B6813F015
:100F4C000C0F4ED0884B5B6803F00C03082B43D07E
:100F5C002369002B79D00122844B1A6000F08CFF9E
:100F6C000546814B1B6813F0020F65D100F084FF1E
:100F7C00401B0228F5D903207DE17B4A136843F41A
:100F8C0080331360B5E7B3F5A02F09D0764B1A6800
:100F9C0022F480321A601A6822F480221A60A8E7C0
:100FAC0003F18043A3F53C331A6842F480221A60A3
:100FBC001A6842F480321A609BE700F05DFF054628
:100FCC00694B1B6813F4003FB3D000F055FF401B76
:100FDC006428F5D903204EE1634B5B6813F4803F22
:100FEC00B6D1614B1B6813F0020F04D02369012B9F
:100FFC0001D001203FE15C4A136823F0F8036169DA
:10100C0043EAC1031360236813F0080F32D0A369BD
:10101C00002B6ED00122564B1A6000F02DFF0546B6
:10102C00514B5B6A13F0020F21D100F025FF401BDE
:10103C000228F5D903201EE14B4A136823F0F8036C
:10104C00616943EAC1031360DDE70022474B1A6074
:10105C0000F012FF0546444B1B6813F0020FD2D070
:10106C0000F00AFF401B0228F5D9032003E1012000
:10107C00FFF704FF236813F0040F00F099803A4B3C
:10108C00DB6913F0805F46D1374BDA6942F080524E
:10109C00DA61DB6903F080530193019B0125354B29
:1010AC001B6813F4807F38D0E368012B49D0002BE8
:1010BC004DD103F1804303F504331A6A22F0010287
:1010CC001A621A6A22F004021A62E368002B5DD0DD
:1010DC0000F0D2FE0646244B1B6A13F0020F66D1B9
:1010EC0000F0CAFE801B41F288339842F3D90320EA
:1010FC00C1E000221E4B1A6000F0BEFE05461A4BE2
:10110C005B6A13F0020FB5D000F0B6FE401B02284C
:10111C00F5D90320AFE00025C1E7164A136843F464
:10112C008073136000F0A8FE0646124B1B6813F484
:10113C00807FB9D100F0A0FE801B6428F5D9032074
:10114C0099E0094A136A43F001031362BDE7052BCA
:10115C0012D0054B1A6A22F001021A621A6A22F0A6
:10116C0004021A62B1E700BF0010024000004242C4
:10117C008004424200700040414B1A6A42F0040263
:10118C001A621A6A42F001021A629EE700F074FEBB
:10119C0006463B4B1B6A13F0020F08D000F06CFEA6
:1011AC00801B41F288339842F3D9032063E0E5B900
:1011BC00E369002B5ED0324A526802F00C02082A16
:1011CC005BD0022B17D000222E4B1A6000F054FE7D
:1011DC0004462B4B1B6813F0007F47D000F04CFEED
:1011EC00001B0228F5D9032045E0254AD36923F0DA
:1011FC008053D361DCE70022224B1A6000F03CFEE6
:10120C0005461F4B1B6813F0007F06D000F034FE20
:10121C00401B0228F5D903202DE0236AB3F5803F4B
:10122C001AD017494B6823F47413226A606A02437C
:10123C0013434B600122134B1A6000F01DFE044651
:10124C000F4B1B6813F0007F0ED100F015FE001B36
:10125C000228F5D903200EE0094A536823F4003321
:10126C00A1680B435360DCE7002004E0002002E09F
:10127C00012000E0002002B070BD0120FBE700BFA0
:10128C00001002406000424230B486B0164D02ACF1
:10129C0028686968AA68EB680FC42B8AADF804301B
:1012AC00124B5B6803F00C02082A19D1C3F383427A
:1012BC0006A90A4412F8100C13F4803F03D10C4B0E
:1012CC0003FB00F00DE0094B5B68C3F340430B4498
:1012DC0013F8142C074BB3FBF2F303FB00F000E004
:1012EC00044806B030BC7047682300080010024068
:1012FC0000093D0000127A00594B1B6803F00703EC
:10130C008B420CD2564A136823F007030B4313602D
:10131C00136803F00703994201D00120704770B5A0
:10132C00036813F0020F06D04E4A536823F0F00303
:10133C008468234353600D460446036813F0010F81
:10134C0052D04368012B23D0022B28D0454A126877
:10135C0012F0020F00F0828042494A6822F0030228
:10136C0013434B6000F088FD06466368012B1DD0CB
:10137C00022B2AD03B4B5B6813F00C0F34D000F0DF
:10138C007BFD801B41F288339842F3D9032070BD5A
:10139C00344A126812F4003FDED1012070BD314A8C
:1013AC00126812F0007FD7D1012070BD2D4B5B6805
:1013BC0003F00C03042B17D000F05EFD801B41F2F0
:1013CC0088339842F2D9032070BD264B5B6803F03A
:1013DC000C03082B08D000F04FFD801B41F2883322
:1013EC009842F2D9032070BD1D4B1B6803F0070314
:1013FC009D420CD21A4A136823F007032B43136047
:10140C00136803F007039D4201D0012070BD2368CF
:10141C0013F0040F06D0134A536823F4E063E16819
:10142C000B435360236813F0080F07D00D4A536821
:10143C0023F46053216943EAC1035360FFF724FF8F
:10144C00084B5B68C3F30313074AD35CD840074BC4
:10145C001860002000F0E0FC002070BD012070BD81
:10146C000020024000100240D42300086C00002031
:10147C00014B1868704700BF6C00002008B5FFF7DF
:10148C00F7FF044B5B68C3F30223034AD35CD840D9
:10149C0008BD00BF00100240E423000808B5FFF7A8
:1014AC00E7FF044B5B68C3F3C223034AD35CD84009
:1014BC0008BD00BF00100240E4230008074AD368AF
:1014CC0023F4E0631B041B0C000200F4E0601843DF
:1014DC0040F0BF6040F40030D060704700ED00E099
:1014EC0030B4164BDB68C3F30223C3F10704042C9E
:1014FC0028BF04241D1D062D17D9033B012505FA11
:10150C0004F4013C2140994005FA03F3013B1340DC
:10151C00194300280BDB0901C9B200F1604000F54A
:10152C00614080F8001330BC70470023E6E700F000
:10153C000F000901C9B2024B1954F4E700ED00E0A9
:10154C0014ED00E0420900F01F00012303FA00F043
:10155C00014B43F82200704700E100E00138B0F184
:10156C00807F0AD2064B5860F021064A82F823107D
:10157C000020986007221A6070470120704700BF56
:10158C0010E000E000ED00E0042805D0054A1368E7
:10159C0023F0040313607047024A136843F00403FA
:1015AC001360704710E000E0704708B5FFF7FCFFD0
:1015BC0008BD0268D36823F49073D3600268536942
:1015CC0023F001035361202380F83A30704790F8E0
:1015DC003930DBB2212B01D0022070478368B3F580
:1015EC00805F17D00268036A591C01621B78536034
:1015FC00C38C9BB2013B9BB2C384DBB90268D3683A
:10160C0023F08003D3600268D36843F04003D360B7
:10161C0000207047036A02681B88C3F308035360F9
:10162C0003691BB9036A02330362E1E7036A0133FE
:10163C000362DDE7002070472DE9F047054602689C
:10164C00136923F44053C1680B4313618368026927
:10165C001343426913430168CA6822F4B05222F062
:10166C000C021343CB600268536923F44073816905
:10167C000B435361D0F80080594B984557D0FFF776
:10168C00FDFE00EB800000EB80006C68A400B0FB5A
:10169C00F4F4544FA7FB043464092601FFF7EEFE63
:1016AC0000EB800000EB80006C68A400B0FBF4FA47
:1016BC00FFF7E4FE00EB800000EB80006C68A400F8
:1016CC00B0FBF4F4A7FB043464094FF0640909FB84
:1016DC0014A424013234A7FB0434640904F0F0048C
:1016EC003444FFF7CBFE00EB800000EB80006E680B
:1016FC00B600B0FBF6F6FFF7C1FE00EB800000EB86
:10170C0080006B689B00B0FBF3F0A7FB0030400936
:10171C0009FB10694FEA091909F13209A7FB0937CE
:10172C00C7F343172744C8F80870BDE8F087FFF7E4
:10173C00B5FE00EB800000EB80006C68A400B0FBF1
:10174C00F4F4284FA7FB043464092601FFF7A6FE26
:10175C0000EB800000EB80006C68A400B0FBF4FA96
:10176C00FFF79CFE00EB800000EB80006C68A4008F
:10177C00B0FBF4F4A7FB043464094FF0640909FBD3
:10178C0014A424013234A7FB0434640904F0F004DB
:10179C003444FFF783FE00EB800000EB80006E68A2
:1017AC00B600B0FBF6F6FFF779FE00EB800000EB1D
:1017BC0080006B689B00B0FBF3F3A7FB03235B0972
:1017CC0009FB13694FEA091909F13209A7FB09371B
:1017DC00C7F343172744C8F80870BDE8F08700BF6B
:1017EC00003801401F85EB512DE9F04105460F46AD
:1017FC0016469846069C2B681B6837EA03030CBFF9
:10180C0001230023B3421ED1B4F1FF3FF3D02CB11E
:10181C0000F032FBA0EB08008442ECD22A68D368BB
:10182C0023F4D073D3602A68536923F00103536106
:10183C00202385F8393085F83A30002385F8383084
:10184C000320BDE8F0810020BDE8F08158B310B54D
:10185C00044690F839300BB3242384F839302268CD
:10186C00D36823F40053D3602046FFF7E5FE2268CB
:10187C00136923F4904313612268536923F02A03FC
:10188C0053612268D36843F40053D3600020E063B3
:10189C00202384F8393084F83A3010BD80F8383081
:1018AC0000F0E6FCD8E7012070472DE9F04182B04A
:1018BC001E4690F83930DBB2202B04D00223184698
:1018CC0002B0BDE8F08104460D469046002955D083
:1018DC00002A55D090F83830012B01D10223EEE7C5
:1018EC00012380F838300023C363212380F839307A
:1018FC0000F0C2FA0746A4F82480A4F8268010E071
:10190C0000963B46002280212046FFF76DFF002801
:10191C0038D122682B88C3F3080353602369CBB9F1
:10192C000235E38C9BB2BBB1E38C9BB2013B9BB207
:10193C00E384A368B3F5805FE2D000963B460022B7
:10194C0080212046FFF750FFF0B923682A785A60AF
:10195C000135E6E70135E4E700963B4600224021DD
:10196C002046FFF741FF034608B10323A7E72022D7
:10197C0084F83920002284F83820A0E701239EE760
:10198C0001239CE703239AE7032398E790F8393067
:10199C00DBB2202B01D002207047A9B1B2B190F874
:1019AC003830012B14D001628284C2840023C363BB
:1019BC00212280F8392080F838300168CA6842F05A
:1019CC008002CA601846704701207047012070479A
:1019DC000220704790F83A30DBB2202B01D0022065
:1019EC007047F9B102B390F83830012B1ED08162E8
:1019FC008285C2850023C363222280F83A2080F8B6
:101A0C0038300168CA6842F48072CA6001684A6959
:101A1C0042F001024A610168CA6842F02002CA60C1
:101A2C00184670470120704701207047022070470C
:101A3C00704708B50168CB6823F04003CB602023C6
:101A4C0080F83930FFF7F4FF002008BD704708B567
:101A5C0090F83A30DBB2222B01D0022008BD83680B
:101A6C00B3F5805F0FD003690BBB836A5A1C82628B
:101A7C00026852681A70C38D9BB2013B9BB2C3853E
:101A8C00F3B1002008BD826A036943B903685B683F
:101A9C00C3F308031380836A02338362EBE70368A2
:101AAC005B68DBB21380836A01338362E3E7826A8B
:101ABC00531C836203685B6803F07F031370DAE7DF
:101ACC000268D36823F02003D3600268D36823F440
:101ADC008073D3600268536923F0010353612023A0
:101AEC0080F83A30FFF7B2FF002008BD70470000C5
:101AFC0010B5044602681368D168526913F00F00E0
:101B0C0005D113F0200F02D011F0200F53D1002873
:101B1C0067D012F0010202D111F4907F61D013F062
:101B2C00010F06D011F4807F03D0E06B40F0010070
:101B3C00E06313F0040F04D01AB1E06B40F0020024
:101B4C00E06313F0020F04D01AB1E06B40F0040014
:101B5C00E06313F0080F04D01AB1E26B42F00802F4
:101B6C00E263E26B002A48D013F0200F02D011F090
:101B7C00200F24D123685B6903F04003E26B12F061
:101B8C00080F00D13BB32046FFF713FD23685A69B9
:101B9C0012F0400F1BD05A6922F040025A61636B5D
:101BAC008BB11A4A5A63606B00F0A6FA28B3606BCB
:101BBC00436B984710BD2046FFF749FF10BD2046E8
:101BCC00FFF745FFD6E72046FFF790FF10BD2046F4
:101BDC00FFF78CFF10BD2046FFF788FF0023E3635F
:101BEC0010BD13F0800F02D011F0800F06D113F04E
:101BFC00400F02D011F0400F04D110BD2046FFF76A
:101C0C00E6FC10BD2046FFF714FFF6E71D1C00088C
:101C1C0008B5406A0023C385C384FFF767FF08BD7E
:101C2C00F0B583B00026344671E0002D00F0A180A1
:101C3C00012D00D1CE68FF2B00F2AF808646FF2B22
:101C4C0000F2AE80A500DEF800200F27AF4022EA9C
:101C5C00070206FA05F52A43CEF800204A6812F06E
:101C6C00805F53D0634A956945F00105956192698F
:101C7C0002F001020192019AA508AF1C5E4A52F8CB
:101C8C00272004F00307BF004FF00F0E0EFA07FEDB
:101C9C0022EA0E02DFF870E1704500F088800EF544
:101CAC00806E704500F086800EF5806E704500F0F9
:101CBC0084800EF5806E704576D04FF0040E0EFACF
:101CCC0007F73A4302354C4F47F825204A6812F47F
:101CDC00803F75D0494D2A681A432A604A6812F42D
:101CEC00003F73D0454D6A681A436A604A6812F423
:101CFC00801F71D0414DAA681A43AA604A6812F439
:101D0C00001F6FD03D4DEA681343EB6001340F2C7C
:101D1C006ED80122A2400B6813409A42F6D14D684E
:101D2C00122D30D00BD8022D2AD07FF67EAF032D8A
:101D3C002FD0112D7FF47FAFCE6804367BE7304F68
:101D4C00BD4216D00CD92F4FBD4212D007F58037AB
:101D5C00BD420ED0A7F58017BD427FF46CAF08E0F2
:101D6C00A7F58017BD4204D007F58037BD427FF43C
:101D7C0062AF8D687DB1012D08D0426108265AE70B
:101D8C00CE68083657E7CE680C3654E70261082651
:101D9C0051E700264FE704264DE700F1040E4EE70D
:101DAC00A4F10805AD004EE74FF0030E87E74FF0A6
:101DBC00000E84E74FF0010E81E74FF0020E7EE734
:101DCC000E4D2A6822EA03022A6087E70B4D6A68E7
:101DDC0022EA03026A6089E7084DAA6822EA030234
:101DEC00AA608BE7054DEA6822EA0303EB608DE7F6
:101DFC0003B0F0BD0010024000000140000401409F
:101E0C0000002110000031100008014012B9090433
:101E1C00016170470161704710B50446074B1868A3
:101E2C00074BA3FB00308009FFF798FB00222146EB
:101E3C004FF0FF30FFF754FB002010BD6C0000206A
:101E4C00D34D621008B5074A136843F010031360B2
:101E5C000320FFF733FB0020FFF7DEFF00F0BEF995
:101E6C00002008BD00200240024A136801331360B1
:101E7C00704700BFA4000020014B1868704700BFDA
:101E8C00A400002010B586B0134B9A6942F01002E2
:101E9C009A619A6902F010020092009A9A6942F0D3
:101EAC0004029A619B6903F004030193019B0B4CA0
:101EBC0000224FF400512046FFF7A8FF4FF40053C7
:101ECC000293012303930223059302A92046FFF7F3
:101EDC00A7FE06B010BD00BF00100240001001406C
:101EEC0080B5E4B00B4E0C4C06F1200735460FCDF7
:101EFC0020606160A260E3602E461034BD42F5D1D3
:101F0C002B8823804FF47A73232269460348FFF70A
:101F1C00CCFCE7E7882300081C0100208801002086
:101F2C0008B50B480B4B03604FF4E13343600023BF
:101F3C008360C36003610C2242618361C361FFF75C
:101F4C0085FC00B908BDCB210348FFF7C9FF00BFD2
:101F5C0088010020003801407C23000800B591B0B6
:101F6C000223069301230A9310230B9300230D9352
:101F7C0006A8FEF799FFF0B90F23019300210291F7
:101F8C0003910491059101A8FFF7B6F9B8B9FFF7D1
:101F9C006FFA0D4BA3FB00308009FFF7DFFA04202A
:101FAC00FFF7F2FA002211464FF0FF30FFF798FAD4
:101FBC0011B05DF804FBA0210448FFF791FFAE219E
:101FCC000248FFF78DFF00BFD34D62107C23000841
:101FDC0008B5FFF737FFFFF7C1FFFFF753FFFFF718
:101FEC009FFF1E4E3368DA6842F02002DA60DA682E
:101FFC0042F04002DA601A4D1A4C0FCC286069602E
:10200C00AA60EB6003CC286169612288A3782A83DB
:10201C00AB765A2229463046FFF7B8FC0522124906
:10202C000E48FFF7D7FC114B1B78DBB2012BF5D117
:10203C000E4B00221A700E4D0E4A0F492846FEF721
:10204C00E5F8064C64233C2229462046FFF72DFC7C
:10205C0005220A492046FFF799FCDFE7880100209A
:10206C001C010020AC2300088001002098000020F7
:10207C00C8010020A8000020C8230008640000202C
:10208C0038B5174D2846FFF733FD164C0122214673
:10209C002846FFF79FFC144B1A68237813498B547E
:1020AC000D2B01D00A2B10D1114B01221A70642375
:1020BC0032220E490A48FFF7F8FB0B4B19680D4A00
:1020CC001160002207490A701A6064230522054931
:1020DC000348FFF7EAFB044A13680133136038BD69
:1020EC0088010020800100209C000020A800002016
:1020FC0098000020A000002008B590F82130022B99
:10210C0003D004238363012008BD0268136823F005
:10211C000E0313600268136823F001031360036855
:10212C00194A934214D0143293421FD01432934262
:10213C001ED0143293421ED0143293421ED014324D
:10214C00934202D04FF0807203E04FF4801200E013
:10215C0001220E4B5A60012380F82130002380F8B5
:10216C002030436B6BB19847002008BD1022F0E77C
:10217C004FF48072EDE74FF48052EAE74FF480326F
:10218C00E7E7002008BD00BF080002400000024045
:10219C000F4B1A6842F001021A6059680D4A0A4046
:1021AC005A601A6822F0847222F480321A601A681B
:1021BC0022F480221A605A6822F4FE025A604FF40C
:1021CC001F029A604FF00062034B9A60704700BF89
:1021DC00001002400000FFF800ED00E000B583B0F5
:1021EC00214B9A6942F001029A619B6903F0010349
:1021FC000193019B0320FFF761F9002211466FF058
:10220C000B00FFF76DF9002211466FF00A00FFF783
:10221C0067F9002211466FF00900FFF761F90022FF
:10222C0011466FF00400FFF75BF9002211466FF0C6
:10223C000300FFF755F9002211466FF00100FFF77C
:10224C004FF9002211464FF0FF30FFF749F9074BC9
:10225C005A6822F0E0625A605A6842F000725A6082
:10226C0003B05DF804FB00BF001002400000014009
:10227C000268184B9A4200D0704730B587B003F50E
:10228C0058439A6942F480429A619B6903F48043F3
:10229C000193019B4FF400730293022303930323D6
:1022AC0005930D4D02A92846FFF7BAFC4FF4806345
:1022BC00029300240394049402A92846FFF7B0FC6F
:1022CC00224621462520FFF70BF92520FFF73AF986
:1022DC0007B030BD00380140000801407047FEE7F0
:1022EC00FEE7FEE7FEE770477047704708B5FFF75B
:1022FC00BBFDFFF75AF908BD002103E00B4B5B58FF
:10230C00435004310A480B4B42189A42F6D30A4AFE
:10231C0002E0002342F8043B084B9A42F9D3FFF742
:10232C0037FFFDF731FFFFF753FE704730240008ED
:10233C000000002070000020700000200C02002023
:10234C00FEE70000F8B500BFF8BC08BC9E4670471D
:0C235C00F8B500BFF8BC08BC9E467047F6
:1023680002030405060708090A0B0C0D0E0F1010CE
:10237800010200005372632F6D61696E2E630000C5
:102388005B215D206F6F70732E2E2E20736F6D652D
:102398007468696E672077656E742077726F6E67F0
:1023A8002100000054686973206973206D652074EA
:1023B800657374696E672E2E2E0D0A3E3E3E000030
:1023C8000D0A436F6D6D3A20257300000000000070
:1023D80000000000010203040607080900000000CD
:1023E80001020304232D302B20000000686C4C00F0
:1023F8006566674546470000303132333435363735
:1024080038394142434445460000000030313233F8
:102418003435363738396162636465660000000018
:042428007501000832
:04242C004D01000856
:102430000400002000000000000000000000000078
:10244000000000000000000000000000000000008C
:10245000000000000000000000000000000000007C
:10246000000000000000000000000000000000006C
:10247000000000000000000000000000000000005C
:10248000000000000000000000000000000000004C
:10249000000000000D0A3E3E3E00000000A24A047B
:0400000508002305C7
:00000001FF
